:020000040800F2
:100000000000022059CE01088165010883650108BE
:100010008565010887650108896501080000000001
:1000200000000000000000000000000051AA0108CC
:100030008B65010800000000F1AA010803A6010871
:10004000A9CE0108A9CE0108A9CE0108A9CE0108B0
:10005000A9CE0108A9CE0108A9CE0108A9CE0108A0
:10006000A9CE0108A9CE0108A9CE0108A9CE010890
:10007000A9CE0108A9CE0108A9CE0108A9CE010880
:10008000A9CE0108A9CE0108A9CE0108A9CE010870
:10009000A9CE0108A9CE0108A9CE0108A9CE010860
:1000A000A9CE0108A9CE0108A9CE0108A9CE010850
:1000B000A9CE0108A9CE0108A9CE0108A9CE010840
:1000C000A9CE0108A9CE0108A9CE0108A9CE010830
:1000D000A9CE0108A9CE0108A9CE0108A9CE010820
:1000E000A9CE0108A9CE0108A9CE0108A9CE010810
:1000F0008D650108A9CE0108A9CE0108A9CE010885
:10010000A9CE0108A9CE0108A9CE0108A9CE0108EF
:10011000A9CE0108A9CE0108A9CE0108A9CE0108DF
:10012000A9CE0108A9CE0108A9CE0108A9CE0108CF
:10013000A9CE01080000000000000000A9CE0108BF
:100140009D650108A9CE0108A9CE01080566010830
:10015000A9CE0108A9CE0108A9CE0108A9CE01089F
:10016000A9CE0108A9CE0108A9CE0108A9CE01088F
:10017000A9CE0108A9CE010800000000000000007F
:08018000A9CE0108A9CE010877
:1001C0000348044B834202D0034B03B118477047E6
:1001D000D8040020D804002000000000054806498B
:1001E0000B1AD90F01EBA301491002D0034B03B145
:1001F00018477047D8040020D804002000000000F1
:1002000010B5064C237843B9FFF7DAFF044B13B15E
:100210000448AFF300800123237010BDD8040020F0
:1002200000000000102F020808B5044B1BB1044960
:100230000448AFF30080BDE80840CFE700000000AD
:10024000DC040020102F0208014B1868704700BF23
:100250000000002008B5074B044613B1002100F050
:100260002BFA054B1868836A03B1984720461BF0A8
:10027000F3FD00BFB9060008282F020870B50D4E27
:100280000D4D761BB61006D0002455F8043B013402
:100290009847A642F9D1094E094D761B22F038FE47
:1002A000B61006D0002455F8043B01349847A64206
:1002B000F9D170BD7C4C02087C4C0208884C0208C5
:1002C0007C4C0208024B0146186800F059B900BF87
:1002D00000000020024B0146186800F0EFB800BF94
:1002E00000000020844641EA000313F003036DD1AF
:1002F000403A41D351F8043B40F8043B51F8043BE9
:1003000040F8043B51F8043B40F8043B51F8043BEF
:1003100040F8043B51F8043B40F8043B51F8043BDF
:1003200040F8043B51F8043B40F8043B51F8043BCF
:1003300040F8043B51F8043B40F8043B51F8043BBF
:1003400040F8043B51F8043B40F8043B51F8043BAF
:1003500040F8043B51F8043B40F8043B51F8043B9F
:1003600040F8043B51F8043B40F8043B51F8043B8F
:1003700040F8043B403ABDD2303211D351F8043B2F
:1003800040F8043B51F8043B40F8043B51F8043B6F
:1003900040F8043B51F8043B40F8043B103AEDD2DE
:1003A0000C3205D351F8043B40F8043B043AF9D22F
:1003B000043208D0D2071CBF11F8013B00F8013B02
:1003C00001D30B8803806046704700BF082A13D30F
:1003D0008B078DD010F003038AD0C3F10403D21A27
:1003E000DB071CBF11F8013B00F8013B80D331F85B
:1003F000023B20F8023B7BE7043AD9D3013A11F8DB
:10040000013B00F8013BF9D20B7803704B78437045
:100410008B78837060467047830730B548D0541E90
:10042000002A3FD0CAB2034601E0013C3AD303F8A8
:10043000012B9D07F9D1032C2DD9CDB245EA052515
:100440000F2C45EA054536D9A4F1100222F00F0C15
:1004500003F1200EE6444FEA121C03F1100242E9B8
:10046000045542E9025510327245F8D10CF10102EF
:1004700014F00C0F03EB021204F00F0C13D0ACF1CC
:10048000040323F003030433134442F8045B934250
:10049000FBD10CF003042CB1CAB21C4403F8012BAD
:1004A0009C42FBD130BD64461346002CF4D1F9E7E1
:1004B00003461446BFE71A46A446E0E7002958D091
:1004C00030B551F8043C83B0002BA1F10404B8BF4F
:1004D000E418019000F0B4FA284A0198136833B187
:1004E000A3420DD9216804EB010C63452FD0636052
:1004F000146003B0BDE8304000F0A4BAA34210D8A5
:100500001A465B68002BF9D1116802EB010C6445B7
:1005100019D02FD36360546003B0BDE8304000F0C1
:1005200091BA116802EB010CA44516D022D82168BB
:1005300004EB010C6345EDD11D685B682944C4E9F7
:1005400000135460D5E7236819441160D1E71D6892
:100550005B682944C4E90013CAE72468214454189D
:10056000A3421160C5D1D3E900432144C2E900137D
:10057000BFE770470C230360BBE700BFF404002013
:10058000F8B5CD1C25F0030508350C2D38BF0C251A
:10059000002D064623DBA94221D8254F00F050FA52
:1005A0003A6822B3144603E063682246FBB11C4656
:1005B00023685B1BF8D40B2B15D8636894420CBFDF
:1005C0003B605360304600F03DFA04F10B00231D00
:1005D00020F00700C21A01D01B1AA350F8BD0C234B
:1005E00033600020F8BD23601C442560EAE7796889
:1005F000C9B12946304600F04DF8431C0CD0C41C4C
:1006000024F00304A04205D0211A304600F042F83D
:10061000013001D02560D5E70C233046336000F06F
:1006200011FA0020F8BD304600F034F87860E0E7B9
:10063000F40400200EB410B5044683B008B18369F9
:100640005BB106ABA168059A0193204600F040FA21
:1006500003B0BDE8104003B0704700F08DF9F0E73B
:100660000FB410B50A4B1C6882B00CB1A3695BB122
:1006700005ABA168049A0193204600F029FA02B064
:10068000BDE8104004B07047204600F075F9EFE770
:100690000000002038B5074D0022044608462A60B5
:1006A0001BF0ACFB431C00D038BD2B68002BFBD0EB
:1006B000236038BD000500202DE9F84FDFF8BCA00D
:1006C000DAF800702DED028BE7B108EE100A8946CA
:1006D0007D68D7F888806C1E14D407EB8506043635
:1006E00008EB8505B9F1000F10D0B8F1000F02D06A
:1006F000EB6F4B450AD0013C631CA5F10405A6F144
:100700000406EFD1BDEC028BBDE8F88F7B68326840
:10071000013BA34216BF00237C603360002AEAD06D
:10072000D7F804B0B8F1000F1AD0D8F800010123AF
:1007300003FA04F1014213D0D8F80401014218D1A0
:1007400055F8041C18EE100A90477A685A450BD1E8
:10075000DAF80030BB42CED01F46002FB8D1D1E727
:1007600090477A685A45F3D0DAF80070002FAFD17D
:10077000C8E755F8040C9047E7E700BFFC040020E9
:1007800000207047014900F037B900BF0D1500087F
:100790000020704770B568224D1E02FB05F50E461D
:1007A00005F17401FFF7ECFE044640B100210C3066
:1007B000C4E90016A06005F16802FFF72DFE20468F
:1007C00070BD00BF274B2DE9F0411E68B369074695
:1007D00053B348364FF00408D6E90134013B04D541
:1007E0001EE05A1C04F168041AD0B4F90C50013B05
:1007F000002DF6D11C4B6566C4E90055C4E90253CF
:10080000C4E90455A5610822294604F15C00FFF7FC
:1008100003FEC4E90D55C4E912552046BDE8F08138
:1008200035682DB12E46D7E7304600F01FF8D0E7E7
:100830004FF4D6713846FFF7A3FE044668B1056051
:10084000C0F804800C302946A06025464FF4D072D1
:10085000FFF7E2FD34602E46BEE70C2330603B60BC
:10086000DBE700BF282F02080100FFFF2DE9F84F4A
:10087000344B35491A68816290424FF00003C0E959
:100880001233036504BF012383610546FFF79AFF16
:1008900068602846FFF796FFA8602846FFF792FF9A
:1008A0006F68E86000240423C7E902430822214658
:1008B000C7E90044C7E904447C66BC6107F15C00F9
:1008C000FFF7AAFDDFF88CB0AE68DFF88CA0DFF888
:1008D0008C90DFF88C801D4BC7F828A0C7E9087BF7
:1008E000C7F82C90C7F830800822F360C6E90044AE
:1008F000C6E904447466B460B461214606F15C0044
:10090000FFF78AFDC6E9086BC6E90AA9C6F8308078
:10091000EE680F4BF360C6E90044C6E90444746610
:10092000B460B4612146082206F15C00FFF774FD53
:100930000123C6E9086BC6E90B98C6F828A0AB618D
:10094000BDE8F88F282F020885070008090001007C
:10095000120002004D11000875110008B5110008C1
:10096000D5110008024B0349186800F045B800BFD4
:10097000282F02080D150008836903B976E7704730
:10098000704700BF704700BF704700BF704700BF8F
:10099000024B0349186800F00FB800BF00000020A8
:1009A00081070008024B0349186800F005B800BF32
:1009B00000000020910700082DE9F041884600F171
:1009C00048070026D7E90154013D0FD4A389012B24
:1009D00005F1FF3506D9B4F90E300133204601D0B8
:1009E000C04706436B1C04F16804EFD13F68002F39
:1009F000E8D13046BDE8F0812DE9F8430746884646
:100A000000F148064FF00009D6E90154013D11D428
:100A1000A389012B05F1FF3508D9B4F90E30013354
:100A2000214603D03846C04749EA00096B1C04F14F
:100A30006804EDD13668002EE6D14846BDE8F8835B
:100A4000704700BF704700BF9368013B002B936065
:100A500011DA10B49469A34209DB0A2907D013689C
:100A6000581C1060197008465DF8044B70475DF81B
:100A7000044B00F0B3BB1368581C10601970084693
:100A8000704700BF9BB1F8B5134406460F46541E8D
:100A90005D1E01E0AC4208D014F8011F3A46304612
:100AA000FFF7D2FF431CF5D1F8BD0020F8BD0020B0
:100AB000704700BF936810B5144613B953601846C9
:100AC00010BD00F08DFD0023C4E9013310BD00BF4F
:100AD0002DE9F04F88469FB015461C46814618B157
:100AE0008369002B00F0A280924B984500F0A4800F
:100AF000914B984500F0B180904B984508BFD9F8CC
:100B00000C80B8F80C30180740F19D80D8F81030F0
:100B1000002B00F0988000230B932978884E0594D1
:100B200020238DF8313030238DF832300127002911
:100B300074D02C460B4604E014F8013F002B00F063
:100B40008F80252BF8D1B4EB050B40F08C802378F7
:100B5000002B63D000234FF0FF32CDE9072306932B
:100B600009938DF85B301C93013404E0069A07FA70
:100B700003F3134306932546052214F8011B304660
:100B800000F04EFF831B0028F0D1069BD90644BF1E
:100B900020228DF85B2029781A0744BF2B228DF87C
:100BA0005B202A2970D1059A116804320029059228
:100BB000C0F29B800991697801352E2976D0614C6D
:100BC0000322204600F02CFF38B1069B001B402476
:100BD00004FA00F003430693013515F8011B5A4847
:100BE0008DF83010062200F01BFF002800F08380F3
:100BF000564B002B6DD005AA0092554B424606A9D4
:100C00004846AFF300800390039B013306D00B9B53
:100C1000039A297813440B9300298AD1B8F80C3031
:100C20005B0617D40B981FB0BDE8F08FFFF7A4FE4A
:100C3000404B98457FF45CAFD9F80480B8F80C308D
:100C400018073FF563AF4146484600F041FB0028D6
:100C50003FF461AF4FF0FF30E5E7D9F8088050E787
:100C6000B4EB050BDAD0AA46C5F1010503E09345C4
:100C700036D91AF8011F42464846FFF7E5FE013013
:100C800005EB0A02F3D1C9E7A1F13002092A94D891
:100C9000099B15F8011F03EB830302EB4303A1F14A
:100CA0003002092AF5D92E29099388D169782A2991
:100CB0002BD1059BA9781A6807920433002A05F105
:100CC00002000593B8BF4FF0FF330546B8BF079346
:100CD00075E7059B073323F007030833059396E771
:100CE0000B9A23785A440B9232E7494243F00203AD
:100CF000099106935FE705AA0092154B424606A9A3
:100D0000484600F0CBF803907EE7A1F130020023C3
:100D1000092A079305F101053FF651AF15F8011FA8
:100D200003EB830302EB4303A1F13002092AF5D957
:100D3000079344E76C2F02084C2F02082C2F02085F
:100D4000383D0208403D0208443D02080000000012
:100D5000850A000810B4054C8446134620685DF8E7
:100D6000044B0A466146FFF7B3BE00BF00000020F7
:100D70002DE9F84F92461F460A698B68DDF82890E6
:100D80009A42B8BF1A46CAF8002091F843300C4680
:100D9000064613B10132CAF80020226891065DD5DB
:100DA000DAF800300233CAF80030226812F0060F79
:100DB00011461ED1E168CB1A002BD8BF114618DDB1
:100DC00004F1190B4FF0000805E0E568DAF800308F
:100DD000ED1A45450CDD01235A4639463046C847D1
:100DE000013008F10108F0D14FF0FF30BDE8F88F75
:100DF000216894F84330003B18BF01238A060AD5C6
:100E0000E1185A1C302081F84300224494F8451020
:100E100082F84310023304F1430239463046C84792
:100E20000130E1D0236803F00603042B1DD0A36832
:100E30002269934225DD4FF000089B1A98441A342A
:100E4000002501E045451CDA01232246394630469B
:100E5000C847013005F10105F4D1C5E712F0060FCE
:100E600012D0003B18BF0123D5E7DAF80030E16863
:100E70002269C91AA368934221EAE178DDDC0029DE
:100E8000DDDC0020BDE8F88FE168DAF80030CB1A2D
:100E9000002BD8BF114693DCABE700BF2DE9F0472C
:100EA0000C4684B09046227E0C990746994604F180
:100EB0004300002A33D0A2F15803DDB2202D67D8B9
:100EC000202B65D8DFE813F0DE00640064006400C6
:100ED0006400640064006400640064006400A300B3
:100EE0006E0064006400640064006E0064006400CE
:100EF0006400640021007F00C00064006400AE0054
:100F000064007F0064006400E50023681A0640F175
:100F100004810B6862691D1D0D601B681A60002347
:100F200082462361CDF80090434603AA2146384605
:100F3000FFF71EFF013020D0236952464146384654
:100F4000C847013019D02368E068039E9B0719D574
:100F5000831B002B16DD04F1190A002504E0E0686C
:100F6000039E831BAB420DDD0123524641463846AA
:100F7000C847013005F10105F1D14FF0FF3004B051
:100F8000BDE8F087B042B8BF304604B0BDE8F08796
:100F9000012384F84220236104F1420A002384F8EB
:100FA0004330BFE723681A0602D45E0600F1C18011
:100FB0000D682A6804350D601546002A6BDBDFF8E2
:100FC00084C10A2610E023681D0640F19C800B684E
:100FD0001D1D0D601D68DFF86CC16F2A0CBF08264F
:100FE0000A26002384F843306268A260002A7FDB6F
:100FF000236823F004032360002D5BD1002A79D1FC
:101000008246082E65D0A0EB0A0020618AE70B68B3
:101010000122186804330B6004F1420A84F842008C
:101020002261BBE70B686268181D0860D3F800A056
:101030000021504600F0F4FC002800F08180A0EB75
:101040000A0060602061A9E7236843F02003236061
:101050007822DFF8F4C084F845200A68151D0D6079
:101060001D0643D4590641D51588DE0744BF43F019
:1010700020032360002D44D1236823F02003236044
:101080001026AEE7582384F84530DFF8B8C023684F
:10109000E3E72368DCE76268A2602D21002AC5F13E
:1010A000000584F8431002DB23F004032360DFF81B
:1010B00094C00A268246B5FBF6F306FB13512A4676
:1010C0001CF801100AF8011DB2421D46F3D2082E89
:1010D00099D12368D90796D5626823699A4292DC30
:1010E00030230AF8013C0AF1FF3A8CE71568BCE7A7
:1010F000002DDFD19CF8003084F8423004F1420A20
:101100007FE710266DE713F0400F0B6803F104052D
:101110000D600CBF1D681D885DE713F0400F0B6864
:10112000626903F104050D601B6814BF1A801A6020
:10113000F5E60A68B2F9005004320A602A463CE734
:1011400060687FE74C3D0208603D020810B50C4620
:10115000B1F90E1000F058FD002803DB636D034465
:10116000636510BDA38923F48053A38110BD00BF24
:10117000002070472DE9F0410C46B1F90C101F46D4
:10118000CB05054616460BD421F48051A1813B4680
:10119000B4F90E1032462846BDE8F04100F082B89E
:1011A000B4F90E100223002200F092FBB4F90C10E7
:1011B000EAE700BF10B50C46B1F90E1000F088FB4D
:1011C000A389421C0EBF23F4805343F4805360650F
:1011D000A38110BDB1F90E1000F0FCB8F8B50D46B2
:1011E0001446064608B1836943B3254B9C422AD076
:1011F000244B9C4229D0244B9C4208BFF468A3890D
:10120000A269A2601A0722D5236903B32268616923
:10121000D31AEDB299422F4629DD0133A168013975
:10122000A160511C2160157062699A4216D0A38991
:10123000DB0701D50A2D11D03846F8BDFFF79CFB1E
:101240000F4B9C42D4D17468D9E7B468D7E72146E4
:10125000304600F03DF838B92369D7E721463046DB
:1012600000F054F90028E7D04FF0FF37E4E72146BB
:10127000304600F04BF90028F6D122680123CDE773
:101280006C2F02084C2F02082C2F020810B4044CBB
:1012900003460A4620685DF8044B1946FFF79EBFD7
:1012A0000000002038B50C46084D84461146204603
:1012B0001A4600232B6064461AF0E4FD431C00D05C
:1012C00038BD2B68002BFBD0236038BD0005002003
:1012D0003C4B70B51D6806460C460DB1AB69E3B1D9
:1012E000394B9C421FD0394B9C424DD0384B9C42CD
:1012F00008BFEC68B4F90C3018079AB219D5216907
:1013000011B312F001002FD00020A06060694042AC
:10131000A06100292ED0002070BD2846FFF72CFBCD
:10132000294B9C42DFD16C68B4F90C3018079AB293
:10133000E5D4D1063ED5520728D4216943F00803ED
:10134000A3819AB20029DCD102F42070B0F5007FAD
:10135000D7D02146304600F0D1FAB4F90C302169DB
:101360009AB212F00100CFD1950758BF6069A06012
:101370000029D0D1120658BF0846CDD543F040030E
:10138000A3814FF0FF3070BDAC68B3E7616B51B122
:1013900004F14402914204D03046FFF78FF8B4F9CB
:1013A0000C300022626321690022C4E9001223F09C
:1013B0002403C3E7092243F0400332604FF0FF30BB
:1013C000A38170BD000000206C2F02084C2F020882
:1013D0002C2F020838B5074D0022044608462A6023
:1013E0001AF05EFD431C00D038BD2B68002BFBD0EB
:1013F000236038BD000500208B891A072DE9F041D4
:101400000C4680463FD44A68002A58DDE66A002E22
:1014100052D00022D8F80050C8F8002013F48052AF
:1014200051D10123216A4046B047431C5ED0A389B5
:10143000E66A5F0705D56368C01A636B0BB1236C5E
:10144000C01A216A024600234046B047411C3CD1E5
:10145000D8F80030002B38D01D2B01D0162B4DD1E1
:1014600023690022C4E90032616BC8F8005019B347
:1014700004F14403994202D04046FFF71FF80020D0
:101480006063BDE8F0810E69B6B10D680E609A0721
:101490000CBF4B690023AD1B8B600BE02B46324623
:1014A000216AA76A4046B847B0F1000CA5EB0C05CD
:1014B000664413DD002DF1DC0020BDE8F0810A6CEC
:1014C000002AA3DCF8E7606DB3E7002363602369BB
:1014D0002360A389DB04C7D56065C5E7A38943F012
:1014E00040034FF0FF30A381BDE8F081D8F8003011
:1014F000002B9CD01D2B06D0162B04D0A38943F0C3
:101500004003A381D9E7C8F80050D5E738B50B6987
:10151000BBB10D46044608B18369B3B10D4B9D4282
:1015200011D00D4B9D4213D00C4B9D4208BFE56876
:10153000B5F90C302BB129462046BDE83840FFF7FD
:101540005BBF002038BD6568F2E7FFF715FAE5E7F5
:10155000A568EDE76C2F02084C2F02082C2F02081B
:1015600038B540B303690446E3B1174B1D680DB1AC
:10157000AB69CBB1154B9C420FD0154B9C4221D08F
:10158000144B9C4208BFEC68B4F90C3053B12146AF
:101590002846BDE83840FFF72FBF6C68B4F90C301F
:1015A000002BF4D1002038BD2846FFF7E5F9074BA2
:1015B0009C42E2D1F1E7084B08491868BDE8384081
:1015C000FFF71ABAAC68DFE7000000206C2F0208B2
:1015D0004C2F02082C2F0208282F02080D15000896
:1015E0009368002B00F085802DE9F04FB1F90C30A5
:1015F0000C461907804683B0174698B225D5236953
:101600001BB310F002033D682DD04FF0000ADFF845
:10161000BCB25646B9465E453346524628BF5B4685
:101620004046002E52D0216AA76AB847002856DDEE
:10163000D9F808301B1A8244361AC9F80830002B32
:10164000E9D1002003B0BDE8F08F21464046FFF706
:101650003FFE002840F03681B4F90C303D6898B266
:1016600010F00203D1D110F0010944D14E46009789
:1016700046B38205D4F808B040F18380B3455A469A
:1016800000F2B28010F4906F40F0BF8020680192A9
:10169000494600F015FAA368019AA3EB0B012368F1
:1016A000A1601344B24623600026009B9868A0EB1B
:1016B0000A00D14498600028C3D0B4F90C0080B26D
:1016C000002ED6D1D5E900960835D1E7D5E900A698
:1016D0000835A0E721464046FFF718FF80B3B4F96C
:1016E0000C3043F040034FF0FF30A38103B0BDE85E
:1016F000F08F002070471E46AA46994618461D46A0
:10170000009756B388B34A46D4E904132068B2421E
:1017100028BF3246884205D9A16803EB010B5A4520
:1017200000F3A680934263DC216AA76A2A464046FA
:10173000B847B0F1000BD2DDB9EB0B09CAD00120DC
:10174000009A9368A3EB0B035D44A6EB0B06936032
:10175000002B3FF476AF002ED4D10AF1080353E9F1
:1017600002569A460833002EF9D032460A212846FE
:1017700000F056F9002800F09C800130A0EB05092C
:10178000C1E720682369984216D86369B34213D829
:101790006FF00042B24228BF3246216A92FBF3F258
:1017A000A76A02FB03F340464A46B847B0F1000A75
:1017B00095DDA6EB0A0678E7B345DA4628BFB246C0
:1017C0005246494600F07CF9A3682268A3EB0A035D
:1017D0005244A3602260002BEBD121464046FFF724
:1017E00095FE0028E5D07AE72068B34632464EE7FA
:1017F0002946019200F064F9019AA3689B1AA3603C
:10180000236813442360934696E723682169A3EB7A
:10181000010B636903EB430A0AEBDA7A0BF101036C
:101820004FEA6A0A33445345524684BF9A465246A9
:1018300043052CD511464046FEF7A2FE00283BD0BA
:101840005A4621690190FEF74DFDA289019B22F4C1
:10185000906242F08002A28103EB0B002361AAEBAD
:101860000B03C4F814A0A3602060B34632460EE711
:1018700029465A4600F024F923685B442360214638
:101880004046FFF743FE00283FF456AF27E74046A7
:1018900000F092F903460028DED121694046FEF7A8
:1018A0000DFEB4F90C300C2223F08003C8F80020A0
:1018B00017E7721C914627E70C22B4F90C30C8F8E0
:1018C00000200EE74FF0FF30BCE600BF00FCFF7FBA
:1018D00038B50C46084D8446114620461A4600236A
:1018E0002B6064461AF0E6FA431C00D038BD2B6822
:1018F000002BFBD0236038BD00050020F0B58B899C
:101900000C46990797B007D504F147030122C4E9B3
:101910000432236017B0F0BDB4F90E10002905465B
:101920002DDB6A4600F086F9002827DB019E06F4CD
:1019300070464FF48067A6F50056B6FA86F639462B
:1019400028467609FEF71CFE30B3A3891A4AAA621C
:1019500043F08003C4E90407A3812060002ED9D09E
:10196000B4F90E10284600F07BF90028D2D0A389E4
:1019700023F0030343F00103A381CBE7A38913F012
:10198000800F14BF40274FF4806739462846002651
:10199000FEF7F6FD0028D8D1B4F90C309A05B9D479
:1019A00023F0030304F1470243F002030121C4E9D9
:1019B0000421A3812260ADE78507000870B50C46BD
:1019C000B1F90E10002996B016461D4613DB6A4683
:1019D00000F030F900280EDB019901F47041A1F507
:1019E0000051B1FA81F14FF4806349090020296068
:1019F000336016B070BDB4F90C3000221B062A60AB
:101A000004D540230020336016B070BD4FF48063CE
:101A10000020336016B070BD000000000000000020
:101A200001F0FF01102A2BDB10F0070F08D010F88F
:101A3000013B013A8B422DD010F0070F42B3F6D193
:101A4000F0B441EA012141EA014122F007047FF0AC
:101A500000070023F0E80256083C85EA010586EA03
:101A6000010685FA47F5A3FA87F586FA47F6A5FA3F
:101A700087F68EB9EED1F0BC01F0FF0102F007024B
:101A800032B110F8013B013A83EA010313B1F8D1F6
:101A90000020704701387047002D06BF35460338D7
:101AA000073815F0010F07D1013015F4807F02BF10
:101AB000013015F4C03F0130F0BC0138704700BF61
:101AC00088420DD98B1883420AD900EB020CBAB1B7
:101AD000624613F801CD02F801CD9942F9D1704761
:101AE0000F2A0ED8034602F1FF3C4AB10CF1010C5B
:101AF000013B8C4411F8012B03F8012F6145F9D10A
:101B0000704740EA01039B0750D1A2F1100370B562
:101B100001F1200C23F00F0501F1100E00F110046B
:101B2000AC441B095EF8105C44F8105C5EF80C5C79
:101B300044F80C5C5EF8085C44F8085C5EF8045CF1
:101B400044F8045C0EF1100EE64504F11004E9D1EE
:101B5000013312F00C0F01EB031102F00F0400EB44
:101B6000031327D0043C24F003064FEA940C1E44D0
:101B70001C1F8E465EF8045B44F8045FB442F9D142
:101B80000CF1010402F0030203EB840301EB840176
:101B900002F1FF3C4AB10CF1010C013B8C4411F8FD
:101BA000012B03F8012F6145F9D170BD02F1FF3C13
:101BB00003469BE72246EBE7F8B51446F9B1CAB1F4
:101BC00006460D4600F05EF8A04202D32F46384686
:101BD000F8BD21463046FEF7D3FC07460028F6D074
:101BE00022462946FEF77EFB30462946FEF766FC74
:101BF0003846F8BD2746FEF761FC3846F8BDBDE81B
:101C0000F8401146FEF7BCBC38B50C46084D84467A
:101C1000114620461A4600232B6064461AF022F92A
:101C2000431C00D038BD2B68002BFBD0236038BD8F
:101C30000005002070B50C46084D034600262046DE
:101C400011461C462E601AF02EF9431C00D070BDC0
:101C50002B68002BFBD0236070BD00BF0005002067
:101C600038B5074D0022044608462A601AF020F9CC
:101C7000431C00D038BD2B68002BFBD0236038BD3F
:101C80000005002051F8040C0028A0F10400BCBF9E
:101C90000B58C018704700BF014B1868704700BF51
:101CA000902F02082DE9F04788B0109D002D69D0D3
:101CB00005F15009044648460E4690461F4602F07C
:101CC0006BF900285ED0002C5CD0D4F800A0BAF1EB
:101CD000000F04D06427384608B0BDE8F0873046CE
:101CE00005F00EF9002852D0B8F1000F4AD0002FAD
:101CF00048D0CDE903AA07AA059205F1580393E855
:101D000007008DE80700CDF81CA0394699E80C00C3
:101D1000304605F0C9F9074600284FD12B6D296ED2
:101D2000C8209847206000284ED0304605F02EF994
:101D300005F164030093079A27682B46414602F099
:101D4000CFFA2368C7F8C400D3F8C40070B303F116
:101D5000700102F0A7FB23680746D0B995F8482028
:101D600083F8B820294670221846FEF7BBFA32687D
:101D7000C0F8C02007986B6D296E9847384608B0A8
:101D8000BDE8F0870B27384608B0BDE8F087C827C4
:101D9000A1E78BB1D3F8C42042B1304605F0F6F884
:101DA0002368D3F8C41002F091FB23686A6D296E92
:101DB00018469047002323600127DBE76728D9D026
:101DC000692803D00A28F7D10A27D3E76727D1E784
:101DD00070B500B3044608460D4605F089F8F0B129
:101DE0002368ABB128465E6D1D6E05F0CFF8C8B113
:101DF0002368D3F8C41002F069FB03462946206823
:101E00001D1E18BF0125B04700232360284670BD62
:101E10001D46284670BD4FF49675284670BDC825EE
:101E2000284670BD0B25F1E770B5144D144988B0F4
:101E3000044650222846FEF755FA02A802F09EF802
:101E40000DF1080CBCE80F0005F1500EAEE80F00D4
:101E50006E46DCF80030CEF80030304602F09EF9D5
:101E600096E8030005F1640383E803007022294625
:101E70002046FEF737FA204608B070BD080500205E
:101E8000982F0208E0B1036870B50446ABB116465E
:101E9000D3F8C4208AB1D3F8C0000D4604F0A8FBE3
:101EA00058B12368D3F8C40038B13246294602F04D
:101EB00009FBBDE8704004F067BB4FF4967070BD3D
:101EC0004FF49670704700BFE8B138B50368044618
:101ED000A3B1D3F8C4208AB1D3F8C0000D4604F0F2
:101EE00087FB58B12368D3F8C40038B14DB12946F7
:101EF00002F0EAFABDE8384004F046BB4FF49670B1
:101F000038BD0B2038BD4FF496707047F8B10368A8
:101F100070B50446B3B11646D3F8C42092B1D3F8D5
:101F2000C0000D4604F064FB60B12368D3F8C40020
:101F300040B155B13246294602F064F9003818BF65
:101F4000012070BD4FF4967070BD0B2070BD4FF432
:101F50009670704700B3036870B50446BBB116466F
:101F6000D3F8C4209AB1D3F8C0000D4604F040FB6A
:101F700068B12368D3F8C40048B15DB13246294640
:101F800002F0A0F910B10A2818BF012070BD4FF46B
:101F9000967070BD0B2070BD4FF49670704700BFF7
:101FA000F8B1036870B50446B3B11646D3F8C4203F
:101FB00092B1D3F8C0000D4604F01AFB60B123685B
:101FC000D3F8C40040B155B13246294602F07CF93D
:101FD000003818BF012070BD4FF4967070BD0B2003
:101FE00070BD4FF496707047C0B1036810B50446D9
:101FF0008BB1D3F8C42072B1D3F8C00004F0F8FA62
:1020000048B12368D3F8C40028B102F049FA003877
:1020100018BF012010BD4FF4967010BD4FF496709C
:10202000704700BF002855D070B51D46036886B0C4
:102030000446B3B31646D3F8C42092B3D3F8C00015
:1020400004F0D6FA68B32368D3F8C4404CB3012E29
:1020500075F1000329DB22A3D3E90023304629468A
:1020600012F08CF902460B46CDE9022330461CA340
:10207000D3E90023294612F081F9CDE9042306AB08
:1020800013E9030002AB0CCB8DE80300204602F0FD
:102090001DF940B1022806D0032818BF012006B060
:1020A00070BD4FF4967006B070BD56EA05030AD0B5
:1020B0000DA1D1E900010EA3D3E90023CDE902016E
:1020C000CDE90423DBE700220023CDE90223CDE99B
:1020D0000423D4E74FF49670704700BFAFF300803D
:1020E00000CA9A3B00000000047DC12502000000E8
:1020F000FFD7F2320000000028B1006818B1D0F814
:10210000C40000B18068704730B1006820B1D0F8D9
:10211000C430002B08BF0020704700BF18B1006812
:1021200008B1D0F8C400704740B1006830B1D0F8B1
:10213000C43013B1D0F8C00070471846704700BFD4
:10214000A0B1036810B5044673B1D3F8C4205AB1E6
:10215000D3F8C00004F04CFA30B12368D3F8C400BF
:10216000003818BF012010BD002010BD00207047AE
:1021700030B1006820B1D0F8C400003818BF012089
:10218000704700BF38B5C8B103680446B3B1D3F88F
:10219000C4209AB1D3F8C0000D4604F029FA68B102
:1021A0002368D3F8C40048B165B1294602F076F936
:1021B000034628B1BDE8384004F0E6B94FF4967301
:1021C000184638BD0B23184638BD00BF38B100682B
:1021D00028B1D0F8C4300BB1703070471846704742
:1021E00020B310B5036882B00446E3B1D3F8C4202D
:1021F000CAB1D3F8C00004F0FBF9A0B12368D3F84A
:10220000C43083B100230DF107008DF8073004F0CE
:10221000E3FE10B99DF807302BB92368D3F8C4301A
:10222000187D02B010BD002002B010BD0020704724
:1022300038B568B30B4641B34568C26805EB8211F7
:102240008B42044621D29D421FD8F2B1013A05EBE0
:102250008215AB42C26009D2DA432A4422F03F021F
:10226000403203F140011846FFF72AFCA1682846D6
:1022700001F098FB14340546204606F0A9FD28B16C
:102280002046BDE8384006F0A9BD0125284638BDE6
:102290000B25284638BD00BF002846D010B502786F
:1022A00084B003460A2A42D8DFE802F0121218145A
:1022B000140606061A2E16000A6A596B52F82120D7
:1022C0000020121A18BF012283F8392004B010BD73
:1022D0000A68F2E78A69F0E78A68EEE70A69ECE7DC
:1022E0005C68084604F1440204F1430104F142032E
:1022F000CDE90121009304F1400204F1410304F10E
:10230000100108F0C9F9E1E75C6804F1230204F167
:102310002203CDE90032084604F1210304F1200232
:1023200004F1100109F02AFDD0E70B2070470120CD
:10233000CCE700BFF0B59BB0002800F088800378A0
:1023400004460A2B00F26781DFE803F02D2D1544C7
:10235000441919195A061500406890F82030002BCE
:1023600040F0B28090F82230002B40F0E48090F8EA
:102370002130002B6FD1002528461BB0F0BD426BE9
:102380000B6A53F82230002BF5D0D0E9010204F19A
:10239000100105F04FF805460028ECD040F2592313
:1023A000984213D029E0426B0B6853F82230002B7F
:1023B000E1D0D0E9010100230AAA05F0D5FB0546CA
:1023C0000028D9D040F29113984216D1002384F806
:1023D0003930D1E7426B8B6953F82230002BCAD0D9
:1023E000D0E9010204F1100104F05EF8054600286E
:1023F000C1D040F2F5139842BED001F047FEBBE7D2
:10240000406890F84230002B7DD1C3691BB190F831
:102410004030002B44D190F84430002B40F0AC8089
:1024200090F84330002BA6D0C26A0AA9103007F0FA
:1024300085FE05460028E0D1DDE90E2360680AF03C
:1024400021FA002898D0012380F8233094E70B2547
:1024500028461BB0F0BD04AE0AAA1030314608F081
:1024600059FF05460028C8D160680AA90AF0BEF9DC
:102470000746002800F0BB8090F90800012109F010
:1024800031FE0328844640F0A7800FCE07F15804A0
:102490000FC496E8030084E8030087F808C06BE7E0
:1024A000816A103007F002FF05460028A5D1606858
:1024B000816A0AF09BF90346002800F0A3800122FC
:1024C000606883F82220A6E70AF04AF906466068A9
:1024D000002E3FF447AF7060F26906F1280110301A
:1024E00008F080FD0546002840F08E80F7690FCF88
:1024F0003572C6F80900C6F80D106068C6F81120DC
:10250000C6F815302EE704AA0AA9103007F09EFD80
:10251000054600287FF471AFDDE90E2360680AF0FC
:102520009FF930B19DF8103080F82130012280F8F9
:102530002020606869E704AA10300AA908F036FE76
:10254000054600287FF459AF606804A90AF04EF9E7
:10255000074660B10AAD00F140060FCD0FC695E801
:1025600003004FF0020C86E8030087F808C060689B
:10257000002380F82230FAE600F130020AA9103078
:1025800007F054FE054600287FF437AFDDE90E233F
:1025900060680AF089F906466068002E3FF440AF93
:1025A000836B0127B784002B3FF43AAF436B05EBF5
:1025B000450103EBC1010AF019F938B16068836B7A
:1025C00086F825700135AB42F0D829E76068836B47
:1025D0000135AB42EAD823E706AB0FCB8DE80F00FD
:1025E000032196E80C0060680AF022FAC4E606AB04
:1025F0000FCB8DE80F00022196E80C0060680AF00E
:1026000017FAB9E6606806E7606831460AF0D8F85C
:1026100001F03CFDB0E60125AEE600BFF0B5037861
:1026200087B004460A2B00F23681DFE803F05E43F0
:102630004F66A10606061E6C5900062B00F022818B
:10264000072B036B40F01881D0E90A128068984785
:1026500004F11001A26A606804F02CFF002833D056
:10266000059001F013FD05982EE0406890F8423087
:10267000002B00F086800026012704E009F0CCFF43
:1026800098B92F7260680AF021F90546002877D0C2
:102690006368E26A9B6995F8211085F82060984785
:1026A00095F821302846002BE8D1606829460AF0C9
:1026B00087F8E7E790F83950D0E90B13002D00F0C8
:1026C000C98080689847002007B0F0BD406806F0D8
:1026D0008FF940F22133984204D00028F4D0BFE7AC
:1026E000036B9847002007B0F0BD90F83950036B9A
:1026F00025B9284698472846E6E7036BA06898471F
:10270000002007B0F0BD406890F824303BBB90F843
:102710002030002B7BD040F63406012707E0284606
:102720000AF03CF9606829460AF04AF8606800211E
:102730000AF074F80546002866D06368E16A9B6970
:102740009847B0424FF00001E9D1012128460AF034
:1027500025F92F72EAE748680AF032F860680AF053
:1027600073F801460028F6D1606880F82410CEE79F
:10277000036B806804F110019847002007B0F0BD9A
:10278000606890F840308BB1C5682DB3002695F88D
:10279000223043B1C36985F8226023B1816AE26ABD
:1027A0002846984760682D68002DF0D190F8443095
:1027B00093B1C56885B1002695F824304BB1436AC2
:1027C00085F824602BB1284695F82510E26A9847D1
:1027D00060682D68002DEFD190F84330002B81D038
:1027E00000270BE06368E26AD96A1E6A85F82370E5
:1027F000B0476068294609F0E3FF60680AF07EF898
:1028000005460028EED16DE7606880F8205090F80A
:102810002130002B3FF466AFC568B5B1022601E058
:102820002D6895B195F90830032BF9D1C369E16A98
:1028300028469847034605F16002284685F825306A
:1028400063B10AF0C9F86068EAE7002380F8213034
:10285000184639E728469847284635E70FCA8DE8D5
:102860000F0005F15807D7E90023606801210AF03D
:10287000DFF82E726068D3E7816A8068984704F1B8
:102880001001E7E600F11001036B826A8068059190
:1028900098470599DEE6012016E700BF00283FD0E3
:1028A00000293ED0034690F838000022002837D097
:1028B00030B493F800C0BCF1080F1ED15C68256CE1
:1028C00035F07F4505D194F8440010B994F84300E1
:1028D00028B130BC704793F839000028F9D1013293
:1028E000914203F1400318D093F838000028F0D04B
:1028F00093F800C0BCF1080FE0D0BCF1090FEAD199
:102900005C68256A002DE4D194F824000028E0D109
:102910000132914203F14003E6D1002030BC704700
:1029200070470846704700BF10B503490446882227
:10293000FDF7D8FC204610BDE82F020800285FD024
:102940002DE9F0410C46B0B0002951D0054618469B
:1029500016461F4601F020FB002849D0002E47D024
:102960002B4988220EA8FDF7BDFC0EA98822284617
:10297000FDF7B8FC2C606846AE606C4606F014FAB1
:102980000FCC05F1140CD7F80080ACE80F000FCC89
:10299000ACE80F000FCCACE80F009FED1B7B236869
:1029A000CCF8003039692F6185ED1A7BB001C04742
:1029B000686038B3002400E0686800EB841031469A
:1029C000013400F0EFFFA642F6D105F1480000F017
:1029D000DFFF104A6B680020C5E91E2063B12B6938
:1029E00053B1AB6843B185F8800030B0BDE8F081E9
:1029F0000B2030B0BDE8F081184630B0BDE8F08162
:102A00000B2070470A20F4E700CA9A3B0000000040
:102A1000E82F02089D28000858B1416839B10169C2
:102A200029B1816819B1C0E91A230020704701203B
:102A300070470B20704700BF58B143683BB1036932
:102A40002BB183681BB180F88010002070470120F3
:102A500070470B20704700BF08B338B50446406884
:102A6000D8B12369CBB1A268BAB119695B6898473C
:102A7000002300200021C4E90201636004F1480042
:102A800004F1140500F084FF284606F0A1F940B9CE
:102A900009A3D3E90023C4E91A23002038BD00208C
:102AA0007047284606F09AF90028F1D001F0EEFAB6
:102AB000EEE700BFAFF3008000CA9A3B00000000C1
:102AC000F8B59DF818E038B331B32AB323B3044600
:102AD000D0E90250A84201D30120F8BD6668870101
:102AE00006EB801C0025F5550130CCF83030CCF8D1
:102AF0002C50012304F11405CCE901128CF801E0FB
:102B0000ACF83830E060284606F062F930B9A36CC2
:102B100001330020A364F8BD0B20F8BD284606F061
:102B20005DF90028F3D0F8BDF8B59DF81CE038B386
:102B300031B32AB323B30446D0E90205854201D359
:102B40000120F8BD6668AF0106EB851C0120F05539
:102B50000135CCF8303004F11406069B8CF83800AF
:102B6000CCE901128CF801E0CCF82C303046E5605D
:102B700006F02EF930B9A36C01330020A364F8BD30
:102B80000B20F8BD304606F029F90028F3D0F8BD37
:102B900000B3F9B138B5D0E902239342044601D31A
:102BA000012038BD406800EB83129D015160022175
:102BB000415301330020012104F11405D062118733
:102BC0002846E36006F004F930B9E36C01330020D5
:102BD000E36438BD0B207047284606F0FFF8002854
:102BE000F3D038BD48B341B33AB333B338B5044634
:102BF000D0E90250A84201D3012038BD656805EB39
:102C0000801C4FEA801ECCF830300323CCE901123F
:102C1000013025F80E300122002304F114058CF850
:102C20003820CCF82C30E060284606F0D1F830B9D6
:102C3000236D01330020236538BD0B2070472846E3
:102C400006F0CCF80028F3D038BD00BF48B341B33C
:102C50003AB333B338B50446D0E90250A84201D3A1
:102C6000012038BD656805EB801C4FEA801ECCF85A
:102C700030300423CCE90112013025F80E30012256
:102C8000002304F114058CF83820CCF82C30E060D7
:102C9000284606F09DF830B9236D013300202365E6
:102CA00038BD0B207047284606F098F80028F3D06E
:102CB00038BD00BF70B369B362B35BB338B50446C7
:102CC000049878B3D4E90250A84201D3012038BD5A
:102CD000656805EB801C4FEA801ECCF82830049B09
:102CE000CCF830300523CCE90112013025F80E3044
:102CF0000122002304F114058CF83820CCF82C3084
:102D0000E060284606F064F830B9636D01330020B6
:102D1000636538BD0B207047284606F05FF8002831
:102D2000F3D0D4E70B2038BD70B369B362B35BB3A3
:102D300038B50446049878B3D4E90250A84201D3C8
:102D4000012038BD656805EB801CCCE901124FEA13
:102D5000801E049ACCF830200722CCF8283025F8C1
:102D60000E200122431C8CF8382004F11405059A2A
:102D7000CCF82C202846E36006F02AF830B9636DC1
:102D800001330020636538BD0B207047284606F0EC
:102D900025F80028F3D0D4E70B2038BD70B369B311
:102DA00062B35BB338B50446049878B3D4E90250F3
:102DB000A84201D3012038BD656805EB801C4FEAAD
:102DC000801ECCF82830049BCCF830300623CCE9A8
:102DD0000112013025F80E300122002304F1140500
:102DE0008CF83820CCF82C30E060284605F0F0FF55
:102DF00030B9636D01330020636538BD0B20704727
:102E0000284605F0EBFF0028F3D0D4E70B2038BDAF
:102E100018B311B30AB370B50446D0E90203834274
:102E200001D3012070BD60689D015E1C00EB83131F
:102E30001A630A22596042530121002204F1140549
:102E400083F83810DA622846E66005F0C1FF30B931
:102E5000236E01330020236670BD0B207047284687
:102E600005F0BCFF0028F3D070BD00BF48B370B5BB
:102E70000E4621B34468C36804EB83139C420546A5
:102E800007D314E0EA686B68403403EB82139C427A
:102E90000DD2204600F0ACFD8642F3D121462846F3
:102EA000FFF7C6F910B9AB6C013BAB6470BD0024F1
:102EB00021462846FFF7BCF90028F4D0F6E70B209E
:102EC00070BD0B20704700BF48B370B50E4621B3EC
:102ED0004468C36804EB83139C42054607D314E09F
:102EE000EA686B68403403EB82139C420DD22046A3
:102EF00000F07EFD8642F3D121462846FFF798F97F
:102F000010B9EB6C013BEB6470BD002421462846F0
:102F1000FFF78EF90028F4D0F6E70B2070BD0B20E8
:102F2000704700BF48B370B50E4621B34468C3680C
:102F300004EB83139C42054607D314E0EA686B68F0
:102F4000403403EB82139C420DD2204600F050FD2A
:102F50008642F3D121462846FFF76AF910B92B6D56
:102F6000013B2B6570BD002421462846FFF760F920
:102F70000028F4D0F6E70B2070BD0B20704700BF8F
:102F800048B370B50E4621B34468C36804EB83139D
:102F90009C42054607D314E0EA686B68403403EBB3
:102FA00082139C420DD2204600F022FD8642F3D1CE
:102FB00021462846FFF73CF910B96B6D013B6B6564
:102FC00070BD002421462846FFF732F90028F4D0CE
:102FD000F6E70B2070BD0B20704700BF48B370B5FB
:102FE0000E4621B34468C36804EB83139C42054634
:102FF00007D314E0EA686B68403403EB82139C4209
:103000000DD2204600F0F4FC8642F3D1214628463A
:10301000FFF70EF910B92B6E013B2B6670BD002433
:1030200021462846FFF704F90028F4D0F6E70B20E4
:1030300070BD0B20704700BF002800F09780F0B5EE
:103040000C4689B0002900F08E801F46002B00F04E
:103050008A800F9B002B00F08680119B002B00F0D4
:103060008280109B1646054613B10E9B002B7AD02A
:10307000D5E902329A4273D22B696361C6EBC6006E
:103080001A681969000190472060002868D020461E
:10309000666009F075FB2B690E9A196906EB46000C
:1030A000C4E90A27C0001A689047A368E6630022B3
:1030B000C4E90D021BB15C601B68002BFBD1EB68FF
:1030C00068689E0100EB8312082787550F985460AB
:1030D000A0611098E06111982062129860621398C4
:1030E000D06200210120013305F1140682F8380076
:1030F00051703046216484F84410EB6005F068FE9E
:1031000020B1304605F06AFE00282AD1002107AA26
:1031100006ABCDE90032CDE90311CDE9051105ABD0
:1031200004AA079104F1100003A907F075FAA96C2D
:10313000039C2A6EEB6C2144A964059C04992344EA
:103140000A44069C296D2A662144EB64D5E91532B0
:103150002965079901320B44AA656B6509B0F0BD7A
:10316000012009B0F0BD0B2009B0F0BD0B20704765
:103170002DE9F04188B0DDF8388000287DD00E467A
:1031800000297AD01C46002B77D00F9B002B74D0DF
:10319000109B002B71D0B8F1000F6AD01746D0E910
:1031A0000221036973619142054662D2C7EBC700F1
:1031B0001A681969000190473060002859D077607B
:1031C000304609F0DDFAB2682AB1D461566012685F
:1031D0004444002AF9D1EB6868689C0100EB831233
:1031E000092707550F985660B0611098F061119843
:1031F000D06200210120013305F1140482F8380067
:103200005170204686F824103162EB6005F0E0FD35
:1032100020B1204605F0E2FD00282BD1002107AAAD
:1032200006ABCDE90032CDE90311CDE9051105ABBF
:1032300004AA079106F1100003A908F061FDA96C2A
:10324000039C2A6EEB6C2144A964059C04992344D9
:103250000A44069C296D2A662144EA6DEB642965BF
:103260006B6D079901320B44EA656B6508B0BDE8E8
:10327000F081012008B0BDE8F0810B2008B0BDE866
:10328000F08100BF58B10378082B09D0092B02D078
:1032900090F83900704743681A6A6AB10120704794
:1032A00043681A6C32F07F42F8D193F8440000284A
:1032B000F5D193F84300704793F82400704700BF9E
:1032C000002844D0F0B500F114059BB00446284610
:1032D00005F07EFD10B100201BB0F0BD284605F0C2
:1032E0007DFD002830D10CA805F05EFD0DF1300CFD
:1032F000BCE80F00AE462769AEE80F00BCE80F003F
:10330000AEE80F00BCE80F00AEE80F00DCF80030BC
:10331000CEF800300FCF04AE0FC63B682268336092
:10332000636E616DCDE90232D4E91332CDE900213B
:103330002846226EA16C06F067F80028CCD00B90CE
:1033400000F0A4FE0B98C7E700F0A0FECBE70B202F
:10335000704700BF2DE9F04F00F1140683B091468D
:1033600098460546FFF7ACFF304605F01BFE0746C2
:10337000002840F0ED80AB68044603B3696801EBB8
:10338000841CA2019CF83830CBB18B5C0A2B00F274
:10339000D880DFE803F09C9CA78C8C060606C9BD8C
:1033A000B200DCF804100CF13402304606F042F9A9
:1033B000002840F08680AB6801349C42DED343464F
:1033C0004A46304606F092F995F88030002B00F01E
:1033D000C780012B40F0B580AB68002B00F059810D
:1033E0000024A04640F291190AE0FEF755FF04467A
:1033F00010B1484540F0B280AB68984580F0268116
:103400006A6802EB8810314690F838C008F101086C
:10341000BCF1000FE9D119461046D5E91E32984794
:10342000002800F09B80AB68002B00F097804FF0E5
:10343000000840F2911909E0FEF77CFF044610B144
:10344000484540F08B80AB68984509D2686800EB2E
:103450008810314690F8382008F10108002AEBD195
:1034600000267BB97AE012F80C20082A00F0FD80D3
:10347000092A00F0EF8090F839208AB901369E427F
:1034800062D200246A6802EB86104FEA861C90F82C
:103490003810002962D041780029E4D00129EDD10B
:1034A000FFF7BCF8002840F0B680AB68E6E7DCF830
:1034B00004100CF13402304606F090F800283FF476
:1034C0007AAF019000F0E2FD019807463CE0DCF89D
:1034D00004100CF13402304605F038FD00283FF4AA
:1034E0006AAFEEE7DCF804100CF13402304606F067
:1034F00045F800283FF45FAFE3E7DCF804100CF177
:103500003402304606F00EF800283FF454AFD8E7F6
:10351000DCF804100CF134021031304608F09CFB4A
:1035200000283FF448AFCCE7DCF804100CF134027B
:1035300010310023304607F00BF800283FF43BAF72
:10354000BFE700F0A3FD0127384603B0BDE8F08FC8
:1035500000F09CFD384603B0BDE8F08F2746F3E746
:10356000AB68002B00F092800024A04640F2911935
:1035700008E0FEF791FE044608B14845EED1AB687D
:10358000984565D26A6802EB8810314690F838C0D9
:1035900008F10108BCF1000FEBD119461046D5E93E
:1035A0001E3298470028D9D0AB68002BD6D04FF0F8
:1035B000000840F2911940F2592A0EE013F80B303E
:1035C000082B33D0092B28D090F83930FBB9AB68E1
:1035D00008F101089845B7D20024686800EB88100C
:1035E0004FEA881B90F83830002BB7D03146FEF7F1
:1035F000A1FE18B1484501D050450CD16B6813EBC2
:103600000B0021D04278002AD8D0012ADFD1FFF761
:1036100005F80028DBD0074696E743681A6A002AB7
:10362000F5D193F82430002BD1D0F0E743681A6C21
:1036300032F07F42EBD193F84420002AE7D193F88F
:103640004330002BC3D0E2E70B277DE76A68E2E650
:103650006A68A2E74268116A00297FF421AF92F8F4
:103660002420002A3FF40AAF1AE74268116C31F0B7
:103670007F417FF415AF92F8441000297FF410AF1A
:1036800092F84320002A3FF4F9AE09E76A681C4625
:1036900083E76A681C46BEE688B170B504460068D8
:1036A00016461D4602F0A4FF28B132462B4620469E
:1036B000BDE870404EE600F0E9FC012070BD0B2033
:1036C000704700BFD0B110B5044682B0D4E91A23C8
:1036D0002068CDE9002302F08BFF0146DDE90023DD
:1036E000204631B1FFF736FE30F00203EED002B0D3
:1036F00010BD00F0CBFC012002B010BD0B207047C4
:103700002DE9F04383B000284ED015461F46D0E97E
:103710001C231343044636D02068D4E91A8902F0EA
:1037200067FF002839D04B4642462046FFF712FE7D
:1037300030F00203064619D1684600F0B5FC009A45
:10374000D4F870C00199636FAA1A67EB01010646AD
:1037500012EB0C0043EB0101012871F1000209DAC0
:1037600015EB0C0543EB0703C4E91C53304603B0CB
:10377000BDE8F08300230F4A10F000FE00F0F8FAD5
:10378000D4E91CC3ECE7703000F08EFC2068D4E96B
:103790001A8902F02DFF0028C5D100F077FC012620
:1037A000304603B0BDE8F0830B26304603B0BDE8D9
:1037B000F08300BF40420F002DE9F04F87B0039225
:1037C00000285DD09A46D0E91C53DFF8B880044643
:1037D00000F1700B4FF000092B4336D0D4E91A23C7
:1037E0002068CDE9002302F003FF0146DDE9002354
:1037F0002046002940D0FFF7ADFD064636F0020313
:1038000004A81ED100F050FC0499039ED4E91C5C6E
:10381000B6EB010E059906466AEB01011EEB0500A9
:103820004CEB0101012871F1000742464B4610DACA
:10383000039B5D194CEB0A0336F00202C4E91C53EA
:10384000CAD0304607B0BDE8F08F584600F02CFCD7
:10385000C4E710F093FD00F08BFA256F039B5D1910
:10386000636F25674AEB030336F002026367B3D048
:10387000304607B0BDE8F08F00F008FC0126E0E715
:103880000B26DEE740420F0018B1C0E91E120020EF
:1038900070470B20704700BF002832D0002931D07C
:1038A00030B40346002293F838403CB31878082817
:1038B00015D0092804D093F8390040B930BC7047BE
:1038C0005868056A1DB990F824000028F6D0013226
:1038D000914203F14003E6D1204630BC704758685E
:1038E000056C35F07F45F2D190F84450002DEED1B3
:1038F00090F843000028EAD130BC7047012030BC6A
:1039000070477047012070472DE9F041002838D0FA
:103910000F46002935D090460446002507E094F86C
:1039200039309BB90135AF4204F1400429D094F8F5
:10393000386036B32378082B11D0092BEFD1636898
:103940001A6A1AB993F82430002BEBD0204600F005
:103950004FF8B0B14045E5D13046BDE8F08163682D
:103960001A6C32F07F42F1D193F84420002AEDD155
:1039700093F84330002BE9D10135AF4204F1400404
:10398000D5D100263046BDE8F08100BF0120704748
:1039900030B108B520220021FCF73EFD002008BD13
:1039A0000B20704768B19FED087B00230B2280ED50
:1039B0000A7BC0E90133C0E90C3102800387184655
:1039C00070470B20704700BF00000000000000009F
:1039D00028B10023416380F83830184670470B2027
:1039E000704700BF00280CBF0B200020704700BFAD
:1039F00068B103780A2B09D8DFE803F0060606064B
:103A00000606060608080600406870470020704752
:103A10002DE9F04186B0B8B31C46ABB30F469046D3
:103A2000064602F06FFF04F10C03059093E80300D3
:103A30008DE8030005A894E80E0002F065FF054636
:103A4000E0B902AD284602F0B3FD95E80300334625
:103A500086E8030005AA4146384602F047FE0546BF
:103A6000B8B9B460224606F10C01032004F0EAFA6A
:103A7000054670B905A802F0ADFF08B100F006FBDD
:103A8000284606B0BDE8F0810B25284606B0BDE803
:103A9000F08100F0FBFA05A802F09CFF0028EFD0AF
:103AA000ECE700BF2DE9F04383B00A9E40B31D460A
:103AB00033B32EB3E946044648460F46904602F01B
:103AC00077FD99E803002A4684E80300234641462F
:103AD000384602F00BFE054660B9A660324604F196
:103AE0000C01032004F0AEFA054618B9284603B0CD
:103AF000BDE8F08300F0CAFA284603B0BDE8F083C1
:103B00000B25284603B0BDE8F08300BF38B520B3CD
:103B100004460C3004F00EFB054648B9204602F07E
:103B2000D3FE68B9204602F0CFFD88B9284638BDDB
:103B300000F0ACFA2046012502F0C6FE0028F1D0C4
:103B400000F0A4FA2046012502F0BEFD0028EDD0C9
:103B5000012500F09BFA284638BD0B25284638BDC4
:103B6000B8B32DE9F0430D46A1B029B316461AB3F8
:103B70001F460BB30DF110080446404603F03EF813
:103B800098E803000DF1180984E80300484603F0A3
:103B900043FA404603F032F8CDF8009098E803006D
:103BA0003B4684E8030032462946204603F030F8BD
:103BB00030B921B0BDE8F0830B2021B0BDE8F0831F
:103BC000039000F063FA00F061FA039821B0BDE8B9
:103BD000F0830B20704700BF58B32DE9F0420D462B
:103BE00086B0D9B11746CAB11E46BBB10C9BABB16A
:103BF0000DF110090446484603F000F80C9B0093B1
:103C000099E80300334684E803003A4629462046F3
:103C100002F0FEFF30B906B0BDE8F0820B2006B01E
:103C2000BDE8F082039000F031FA039806B0BDE8D9
:103C3000F0820B20704700BF68B32DE9F0410D46BC
:103C4000A0B021B3164612B31F4603B30446FEF7D5
:103C500023F80DF1100820604046FEF7E5F80F4903
:103C600050224046FCF73EFBCDF800803B463246F2
:103C700029462046FEF716F810B920B0BDE8F081BD
:103C8000039000F003FA039820B0BDE8F0810B2008
:103C900020B0BDE8F0810B20704700BF70300208F3
:103CA00068B32DE9F0410D46A0B021B3164612B31A
:103CB0001F4603B30446FDF7EFFF0DF11008206027
:103CC0004046FEF7B1F80F4950224046FCF70AFB88
:103CD000CDF800803B46324629462046FDF7E2FFFC
:103CE00010B920B0BDE8F081039000F0CFF903983F
:103CF00020B0BDE8F0810B2020B0BDE8F0810B20A2
:103D0000704700BFC03002082DE9F043A1B0DDF8D4
:103D1000A08010B30D4601B31646F2B11F46E3B1C1
:103D2000B8F1000F19D00446FDF7B6FF0DF11009E8
:103D300020604846FEF778F8414650224846FCF796
:103D4000D1FACDF800903B46324629462046FDF791
:103D5000A9FF30B921B0BDE8F0830B2021B0BDE848
:103D6000F083039000F092F9039821B0BDE8F0834E
:103D70004FF47A7303FB00F012F02EBB68B32DE909
:103D8000F0410D46A0B021B3164612B31F4603B34F
:103D9000044603F0CFFB0DF110082060404603F00D
:103DA000CBFC0F4950224046FCF79CFACDF800802E
:103DB0003B4632462946204603F0C2FB10B920B0EC
:103DC000BDE8F081039000F061F9039820B0BDE8F0
:103DD000F0810B2020B0BDE8F0810B20704700BFC0
:103DE0001031020868B32DE9F0410D46A0B021B3AF
:103DF000164612B31F4603B3044603F09BFB0DF1B6
:103E000010082060404603F097FC0F4950224046BE
:103E1000FCF768FACDF800803B463246294620463A
:103E200003F08EFB10B920B0BDE8F081039000F0E4
:103E30002DF9039820B0BDE8F0810B2020B0BDE83B
:103E4000F0810B20704700BF603102082DE9F0437C
:103E5000A1B0DDF8A08010B30D4601B31646F2B153
:103E60001F46E3B1B8F1000F19D0044603F062FB1E
:103E70000DF110092060484603F05EFC41465022D7
:103E80004846FCF72FFACDF800903B4632462946CB
:103E9000204603F055FB30B921B0BDE8F0830B207C
:103EA00021B0BDE8F083039000F0F0F8039821B052
:103EB000BDE8F08360B32DE9F0410E468AB019B336
:103EC00090461F46054604F0ADFCB46828600FCC50
:103ED0000DF10C0CACE80F002368CCF80030109BFF
:103EE0000293CDE900872846324606F10C0104F022
:103EF0009FFC10B90AB0BDE8F081099000F0C6F847
:103F000009980AB0BDE8F0810B200AB0BDE8F08145
:103F10000B20704710F004BC10F0A0BDFCF7DAB91C
:103F2000FCF7D0B910B5054C864684460FCCACE8FA
:103F30000F002368CCF80030704610BDB031020885
:103F4000A8B10268A2B14168A1B110B4C46864B15B
:103F5000806838B1084B1A600022C3E90342C3E904
:103F6000011001205DF8044B70472046FAE77047C6
:103F700010467047084670476400002010B5054C95
:103F8000864684460FCCACE80F002368CCF800309E
:103F9000704610BD6400002058B1036843B1436807
:103FA00033B1C36823B18068003818BF012070475F
:103FB0001846704770B51546A2B1146854B15468DC
:103FC00044B1D46834B1946824B112690646A0475C
:103FD000044608B1204670BD30466B682969984791
:103FE000204670BD1446204670BD00BF84B038B571
:103FF000114D04AC84E80F002C7824B1BDE83840A2
:10400000002004B0704704A8FFF7C6FF70B1012379
:1040100000200021C5E904012B7020462C812C765C
:104020006C76AC76BDE8384004B07047BDE83840E7
:104030000B2004B0704700BF7805002048B141B1A3
:10404000044B0021C3E90421012019815976197616
:104050009876704778050020014B987E704700BF26
:10406000780500200048704780050020054B9A7EA7
:104070002AB15A7E0AB901225A76187E7047024B3D
:1040800018787047780500208C3C0208054B002208
:1040900000200021C3E904011A815A761A769A7623
:1040A000704700BF7805002008B370B584B004469F
:1040B0006946012018F0DCF8DDE90035002D13DB3E
:1040C000029900290DDB0B4EA3FB06325B1806FBA1
:1040D00005224FF0000042EBE172C4E9003204B067
:1040E00070BD53EA0502EED1022004B070BD0B2072
:1040F000704700BF00CA9A3B08B370B584B004464D
:104100006946002018F0B4F8DDE90035002D13DB16
:10411000029900290DDB0B4EA3FB06325B1806FB50
:1041200005224FF0000042EBE172C4E9003204B016
:1041300070BD53EA0502EED1022004B070BD0B2021
:10414000704700BF00CA9A3B18B370B584B00446EC
:104150006946002018F08CF8002817DBDDE90035EF
:10416000002D13DB029900290DDB0B4EA3FB063259
:104170005B1806FB05224FF0000042EBE172C4E938
:10418000003204B070BD53EA0502EED1022004B043
:1041900070BD0B20704700BF00CA9A3B002202602E
:1041A0000271704770B4DDE9035662B15BB155B17D
:1041B0004EB1064C2070C4E90112C4E903356661B2
:1041C000002070BC70470B2070BC70479405002025
:1041D00070B4059CDDE903566AB163B15DB156B1B7
:1041E0004CB1646B2074C4E90512C4E907356662FA
:1041F000002070BC70470B2070BC7047C96F1BF06B
:104200009DB800BF002853D070B50D468EB0002970
:104210004BD00446006801F0DFF8002845D06668FE
:10422000002E42D0B469284623699847F369059067
:1042300013B105A898470598D6F880301B690090FF
:104240007269B16F03F5287006AB1BF089FED8B117
:10425000A36806A928469847336A04460BB106A806
:10426000984796F87A30012BD6F8803022D018691A
:10427000F16F00F528701BF061F82040C4B284F0A3
:104280000100C0B20EB070BDD6F880301869059B31
:1042900000930B4B019302967269B16F00F5287081
:1042A00006AB1BF08DFE0028D2D101200EB070BDF0
:1042B00001207047186900F528701AF07FFCDEE7CE
:1042C000FD410008032070470320704782B08DE84D
:1042D0000C00032002B07047032070470320704792
:1042E0002DE9F04F87B0002800F0CC800E46002961
:1042F00000F0C880044600681546984601F06CF846
:10430000002800F0BF80002D00F0BC802B78002B2F
:1043100000F0B880B8F1000F00F0B4805C48D4F829
:10432000049009F083FF002800F0AC808468C4F892
:1043300088400AF0D9F804F19C0AC4F88400C4F853
:104340008CA0284610F05CFF01303C2804F1840763
:1043500000F291804F4A2B463C21504610F0CEFC93
:104360004FF47A73E3674146C4F88090502204F119
:104370002800FBF7B7FF98F808304749022BD9F817
:1043800010300CBFD3F87C33D3F87833A367002305
:10439000C4E90733304601F02DF800286BD042689D
:1043A000A261002A67D02946434648460AF090FB9E
:1043B0006062002863D0D9F8103003F580530321E0
:1043C000B3F89805421CA3F898251AF097FAD4F888
:1043D0008020D9F810302061D3F884331069062585
:1043E000009519682269D9F8143000F528701AF080
:1043F000C3F80246D9F81000D0F88C33D0F88413F3
:1044000000F0DAFBB8B3D9F8103003F5805305217A
:10441000B3F89A05421CA3F89A251AF06FFAD4F85B
:10442000803060611E69D9F81030D4F824B00DF1E5
:10443000100A41465046D3F8848300F0D9FB039517
:104440009AE803000190ADF80810DBF810300093F3
:1044500006F52876D4E90432D8F8001030461AF070
:10446000EBF80246D9F81000D0F88C33D0F884135A
:1044700000F0A2FB38B9606A08B100F087FA38464C
:1044800000F02CFA0027384607B0BDE8F08F00BFD7
:10449000D0050020A83D0208743D020803207047A3
:1044A0000320704750B108B50B4649B1416850220E
:1044B00028311846FBF716FF002008BD0B20704777
:1044C0000B2008BD0320704703207047F8B528B1C2
:1044D000044600680D4600F07FFF10B90124204615
:1044E000F8BD6368002BF9D0002DF7D0286800F0E4
:1044F00073FF0028F2D06C68002CEFD0606AD4F80B
:1045000080700AF035FBD4F8803062691869D0F801
:10451000883300F52870196819F07AFFD4F88030D4
:1045200022691B69D3F888130446096803F52870CB
:1045300019F06EFF3E692246D6F89033D6F88813FC
:104540000446304600F038FB3E692246D6F89033E8
:10455000D6F888130446304600F02EFB2CB120B16B
:104560000024284600F0BAF9B9E70224F9E700BFB1
:10457000034B186810B1836893F84003704700BF7D
:10458000B0050020054B1B6823B1986800F5287022
:104590001AF0F8BA00200021704700BFB0050020D3
:1045A000054B1B6823B1986800F528701AF0FCBA17
:1045B00000200021704700BFB005002008B5074B60
:1045C0001B684BB10146986800F528701AF030FF5F
:1045D00080F00100C0B208BD012008BDB005002078
:1045E000E2B12DE9F041057B0646ADB9C823C0E92B
:1045F0000055836040F20113174683810C46A8469C
:1046000021463046013509F021FEAF42A46084F80E
:104610000C8004F1C804F3D1BDE8F081704700BFFD
:10462000E2B12DE9F041057B0646ADB9C823C0E9EA
:104630000055836040F20113174683810C46A8465B
:1046400021463046013509F001FEAF42A46084F8EE
:104650000C8004F1C804F3D1BDE8F081704700BFBD
:10466000E2B12DE9F041057B0646ADB9D823C0E99A
:104670000055836040F20113174683810C46A8461B
:1046800021463046013509F0E1FDAF42A46084F8CF
:104690000C8004F1D804F3D1BDE8F081704700BF6D
:1046A000E2B12DE9F041057B0646ADB9D823C0E95A
:1046B0000055836040F20113174683810C46A846DB
:1046C00021463046013509F0C1FDAF42A46084F8AF
:1046D0000C8004F1D804F3D1BDE8F081704700BF2D
:1046E000E2B12DE9F041057B0646ADB9A423C0E94E
:1046F0000055836040F20113174683810C46A8469B
:1047000021463046013509F0A1FDAF42A46084F88E
:104710000C8004F1A404F3D1BDE8F081704700BF20
:10472000EAB12DE9F843057B0646B5B9C0E9005565
:1047300041F2A85840F201131746C0F808800C4611
:104740008381A94621463046013509F07FFDAF42FD
:10475000A46084F80C904444F4D1BDE8F883704719
:10476000E2B12DE9F041057B0646ADB91C23C0E955
:104770000055836040F20113174683810C46A8461A
:1047800021463046013509F061FDAF42A46084F84E
:104790000C8004F11C04F3D1BDE8F081704700BF28
:1047A000EAB12DE9F041057B0646B5B94FF4046343
:1047B000C0E90055836040F20113174683810C461F
:1047C000A84621463046013509F040FDAF42A460BD
:1047D00084F80C8004F50464F3D1BDE8F0817047DF
:1047E000E2B12DE9F041057B0646ADB92C23C0E9C5
:1047F0000055836040F20113174683810C46A8469A
:1048000021463046013509F021FDAF42A46084F80D
:104810000C8004F12C04F3D1BDE8F081704700BF97
:10482000E2B12DE9F041057B0646ADB91C23C0E994
:104830000055836040F20113174683810C46A84659
:1048400021463046013509F001FDAF42A46084F8ED
:104850000C8004F11C04F3D1BDE8F081704700BF67
:10486000E2B12DE9F041057B0646ADB92023C0E950
:104870000055836040F20113174683810C46A84619
:1048800021463046013509F0E1FCAF42A46084F8CE
:104890000C8004F12004F3D1BDE8F081704700BF23
:1048A0000146014809F0D2BCB005002038B50446E5
:1048B000006828B1074B196810F0D6FA40B920609B
:1048C000616829B1002504480D6109F0BFFC6560ED
:1048D00038BD00BF303A0208C005002010B50446BC
:1048E000006828B1064B196810F0BEFA38B920608C
:1048F000616821B1034809F0A9FC0023636010BD81
:10490000303A0208D005002010B50446006828B1EE
:10491000064B196810F0A8FA38B92060616821B117
:10492000034809F093FC0023636010BD303A02088D
:10493000E005002010B50446006828B1064B196850
:1049400010F092FA38B92060616821B1034809F08B
:104950007DFC0023636010BD303A0208F0050020A2
:1049600010B50446006828B1064B196810F07CFAAF
:1049700038B92060616821B1034809F067FC002361
:10498000636010BD303A02080006002010B50446EE
:104990002146034809F05AFC0023A36110BD00BF63
:1049A00010060020084B1B6F5BB100219A685B6802
:1049B000D2F81428904208BF0131002BF6D10846E6
:1049C0007047194608467047B005002082B030B5E0
:1049D00025490D6F03AC84E80C001C46002D41D026
:1049E0002B4600219A685B68D2F81428904208BFD1
:1049F0000131002BF6D19DF80C30022B29D007D9BC
:104A0000032B05D00021BDE83040084602B07047B6
:104A100014B38C4220D8002DF4D000214FF0FF3C7D
:104A20006FF0004402E06D68002DECD0AB68D3F865
:104A300014289042F7D1D3F8182803F50263624591
:104A400053F8043C73EB040EEDDA94461C462946F9
:104A5000E9E70CB18C42D5D9BDE83040034802B03B
:104A600009F0E4BB2946C6E7B00500202006002077
:104A7000114B1B6F30B5E3B14FF0FF3E6FF0004CB0
:104A8000002401E05B6893B19A68D2F81418884258
:104A9000F8D1D2F81818D2F81C28714572EB0C0521
:104AA000F0DA1C465B688E469446002BECD120461B
:104AB00030BD1C46204630BDB00500202DE9F04F2A
:104AC0003B4B2DED068B1F6F8DB0FFF769FD002F5F
:104AD0005DD0B8469FED308BD8F8085095F8203857
:104AE000042B9FED2FAB9FED309B81468A4604AC93
:104AF0003FD0052B44D0032B3BD08DED048B8DEDA7
:104B000006AB8DED088B8DED0A8B08AB0FCB8DE8D6
:104B10000F0094E80F0009F06BF818B18DED049BBD
:104B20008DED068B94E80F00D5F81868D5F81C7841
:104B3000D8F804B009F0B0F8301847EB0101484547
:104B400071EB0A0305F5026505DB55E90223914582
:104B50007AEB030303DA1748414609F077FBBBF110
:104B6000000F14D0D846D8F8085095F82038042BF8
:104B7000BFD1D5F8143840330FCB84E80F00C0E71D
:104B8000D5F8143848330FCB84E80F00B9E70DB0DF
:104B9000BDEC068BBDE8F08F0000000000000000B7
:104BA00001000000000000001E00000000000000E6
:104BB000B00500202006002010B58C7886B0012CAE
:104BC000ADF80E200CD01946012300930DF10E0212
:104BD0000DF1170300F528701AF0D6FB06B010BDD2
:104BE00000F5287019F0EAFF204606B010BD00BF9E
:104BF0004A7A91F808C0022A18BF002202700A7887
:104C000089888180ACF1020CA2F10202BCFA8CFC12
:104C1000B2FA82F24FEA5C1C520980F801C082703D
:104C2000704700BF10B51C4610460B46054A21468A
:104C300010F064F8002800DB10BD8442D8BF0020CB
:104C400010BD00BFC4310208F0B5144D83B01C463E
:104C5000CDE900052B1F064617460846104A214697
:104C600010F04CF805F1080301460C3501950C4A8B
:104C700000960D463846214610F040F8002D01DB25
:104C8000AC4202DC002003B0F0BD0028FADB844215
:104C9000D4BF0020012003B0F0BD00BF0C320208D9
:104CA000A43D02082DE9F047054686B080680C4611
:104CB00017461E468047EB6880469847D8F8042080
:104CC000D0F80490002323701368002B42D0DFF843
:104CD000988041462046224C05945268DFF890A007
:104CE00004920091CDE902481E4ACDF804A0314655
:104CF00010F004F800281FDB00233B70D9F80030C7
:104D0000B042ACBF00250125EBB1174A0594D9F894
:104D100004100092CDE90381CDE901A4114A38467F
:104D200031460FF0EBFF002810DBB042B4BF28463D
:104D3000002006B0BDE8F08700233B70D9F80030B2
:104D40000025002BE1D1094B1A46DFE7002006B011
:104D5000BDE8F087054BDFF810801946BAE700BFC1
:104D6000AC3D02089C3D0208983D0208603E0208E6
:104D7000B03D02082DE9F04F1C46AFB09B68DFF84C
:104D8000349190460D46074698470646E368984793
:104D90000023726889F800301368D0F804B0002B43
:104DA0007ED0414E3146414C05945268DFF828A12F
:104DB00004920091CDE902463D4A3E48CDF804A058
:104DC00064210FF09BFF002389F86430DBF800308A
:104DD000002B62D0344A0594DBF804103648009268
:104DE000CDE90361CDE901A4314A64210FF086FFCA
:104DF000389B93F8482000238DF86C308DF82430D0
:104E00001BAC002A36D12D4E2D4A00950196331F3A
:104E1000492120460FF072FF482803D900202FB007
:104E2000BDE8F08F06F10C030DF1240A0193244A2A
:104E3000009506F10803472150460FF05FFF462812
:104E4000ECD81D4B0393CDE9044A1E4B1E4C1F4A60
:104E50000097B8F1000F08BF2346CDE90159DDE9FD
:104E6000390106930FF04AFF0028D8DA3A9B8342B3
:104E7000D4DDD4E7164A2B46492120460FF03EFFE9
:104E80004828CBD80DF1240A114A2B464721504619
:104E90000FF034FF4828D4D9C0E70E4B1A469AE7E2
:104EA0000C4B014E19467EE7983D0208AC3D0208C6
:104EB0009C3D02086C4F0020D04F00200C320208AD
:104EC000A43D0208B43D0208C03D02082032020899
:104ED000A83D0208603E0208B03D020800230B70A6
:104EE0000120704700230B700120704710B5034666
:104EF00082B080781B88009014460846054A2146F7
:104F00000FF0FCFE002802DA8442D8BF002002B075
:104F100010BD00BFD032020830B500230B7003680B
:104F200087B01446D3B10F4A1546039200954268E4
:104F30000D48019008460D490492059102910C4AD2
:104F400021460FF0DBFE002805DB8442D4BF0020A1
:104F5000012007B030BD002007B030BD054B014A2D
:104F60001D46E2E7983D0208B03D0208AC3D02084C
:104F70009C3D0208603E020810B582B014460090C5
:104F8000084B094A084621460FF0B8FE002805DB09
:104F90008442D4BF0020012002B010BD002002B026
:104FA00010BD00BFD8320208C83D0208F0B597B066
:104FB00007460E4615461C4610F022F93C2802D939
:104FC000002017B0F0BD234B002283F8C8203368BF
:104FD000002B3AD0204A11460091039272681F4973
:104FE00004921F4A0192059102911E4A1E486421B3
:104FF0000FF084FE6328E3D895F84830C3B906ADB6
:105000001A4B1B4A0097402128460FF077FE0028D4
:1050100017DB154B0093174A1C992B4620460FF0BF
:105020006DFE0028CDDA1C9B8342D8BF0020C8E764
:1050300006AD114A3B46402128460FF05FFE00288E
:10504000E7DA1C9B8342E4DCBAE70C4B024A1946C0
:10505000C2E700BF6C4F0020983D0208AC3D02083B
:10506000B03D02089C3D020834500020D8320208AE
:10507000C83D0208DC320208A83D0208603E020872
:10508000F0B52B4F1C46002387F82C31136897B0DE
:1050900006460D46002B46D026490846039100904F
:1050A000526825490492254A019205910291244AA9
:1050B000244864210FF022FE632831D894F8483048
:1050C00000228DF81820FBB906AF1F4B1F4A009530
:1050D000402138460FF012FE00281EDB0097217A8F
:1050E0001B4A1C4B17480190022918BF1346DDE9E3
:1050F0001C0132460FF002FE002812DA1D9B984276
:10510000A8BF002017B0F0BD06AF134A2B464021C0
:1051100038460FF0F3FD0028E0DA1D9B9842DDDBF6
:10512000002017B0F0BD0D4B02491846B6E700BF8E
:105130006C4F0020983D0208AC3D0208B03D0208CB
:105140009C3D020898500020D8320208C83D020851
:10515000DC3D0208D03D0208A83D0208603E02087E
:10516000F0B52B4F1E46002387F82C310B6897B003
:1051700005461446002B46D0264A1046009003925E
:105180004A6804922449254A019205910291244AD1
:10519000244864210FF0B2FD632831D894F84830D8
:1051A00000228DF81820FBB906AF1F4B1F4A00954F
:1051B000402138460FF0A2FD00281EDB0097207A20
:1051C0001B491C4B174A0192022818BF0B461A4A6A
:1051D0001C9930460FF092FD002812DA1C9B984271
:1051E000A8BF002017B0F0BD06AF144A2B464021DF
:1051F00038460FF083FD0028E0DA1C9B9842DDDB87
:10520000002017B0F0BD0E4B024A1846B6E700BFAB
:105210006C4F0020983D0208AC3D0208B03D0208EA
:105220009C3D020898500020D8320208C83D020870
:10523000DC3D0208D03D020820330208A83D0208E8
:10524000603E0208F0B52B4F1E46002387F82C3134
:105250000B6897B005461446002B46D0264A1046E8
:10526000009003924A6804922449254A01920591CC
:105270000291244A244864210FF040FD632831D86C
:1052800094F8483000228DF81820FBB906AF1F4B68
:105290001F4A0095402138460FF030FD00281EDBE4
:1052A0000097207A1B491C4B174A0192022818BF0D
:1052B0000B461A4A1C9930460FF020FD002812DADE
:1052C0001C9B9842A8BF002017B0F0BD06AF144A3F
:1052D0002B46402138460FF011FD0028E0DA1C9BD8
:1052E0009842DDDB002017B0F0BD0E4B024A184695
:1052F000B6E700BF6C4F0020983D0208AC3D0208A5
:10530000B03D02089C3D020898500020D8320208A7
:10531000C83D0208DC3D0208D03D020838340208CE
:10532000A83D0208603E0208132910B511D90B4CA4
:1053300084460FCCCCF800002068CCF810004FF069
:10534000010ECCF80410CCF80820CCF80C307046D4
:1053500010BD4FF0000E704610BD00BFE83D0208C2
:1053600010B5034614460846064A013321460FF09D
:10537000C5FC002804DD8442D4BF0020012010BDFC
:10538000002010BDFC3D020810B503461446084637
:10539000064A013321460FF0B1FC002804DD8442A7
:1053A000D4BF0020012010BD002010BD043E020823
:1053B00010B5034614460846064A013321460FF04D
:1053C0009DFC002804DD8442D4BF0020012010BDD4
:1053D000002010BD0C3E020810B5044640B109F093
:1053E00083F8014620460FF03FFDB0FA80F04009F7
:1053F00010BD00BF8368184710B5044600680FF061
:1054000033FD00280CBF2046002010BD10B5044617
:1054100086B070B101A8FEF7B1FD019B059901208E
:105420009847206028B1002101220170C4E90112CF
:10543000104606B010BD00BF20B310B5036886B09B
:10544000044673B18368F3B101A8FEF797FD029B90
:105450000599206898470023C4E90033A36006B08B
:1054600010BD4368DBB98368002BF8D0124B13489A
:105470001B685122DB6801210FF0C0F94FF0FF30AB
:10548000FAF7E8FE70470C4B0D481B684C22DB68AE
:1054900001210FF0B3F94FF0FF30FAF7DBFE064BB6
:1054A00008481B684E22DB6801210FF0A7F94FF076
:1054B000FF30FAF7CFFE00BF00000020B43E020824
:1054C000143E0208643E020878B179B108B542681A
:1054D0004B689A4201D0002008BD096800680FF0AF
:1054E000FFF9B0FA80F0400908BD704708467047E0
:1054F0002DE9F041054686B0F0B10C46E1B1531CF0
:10550000164619D002F1010801A8FEF737FD039BEA
:10551000059A286841469847074668B121463246B1
:10552000FAF7E0FE00230120BB55C5E90076C5F877
:10553000088006B0BDE8F081002006B0BDE8F0812B
:105540002DE9F0410C4686B0F9B10546D0B10846C8
:105550000FF056FE064606F1010801A8FEF70EFD03
:10556000039B059A286841469847074650B1214653
:105570003246FAF7B7FE0023BB55C5E90076012095
:10558000C5F8088006B0BDE8F081084606B0BDE861
:10559000F08100BF38B32DE9F0410C4686B0F1B17F
:1055A0000768E7B145686B1C19D001A805F101082F
:1055B000FEF7E4FC039B059A20684146984706469F
:1055C00068B139462A46FAF78DFE0023012073554B
:1055D000C4E90065C4F8088006B0BDE8F081002089
:1055E00006B0BDE8F08170472DE9F04F80468BB0E2
:1055F00038B18A4641B90E46C8E9006AC8F808A021
:1056000001200BB0BDE8F08F6846FEF7B7FCDDE97E
:1056100003370C213A4650469847064640B30024CB
:1056200005464FF00109A34607E001340C35A245B9
:1056300080F800B045E902B9DED005A8FEF79EFC6F
:10564000059B09990120984728600028EDD15CB19D
:1056500004EB440406EB84040C3C2046FFF7ECFE0C
:10566000A642A4F10C04F8D1019B39463046984774
:1056700000200BB0BDE8F08F002844D0F0B50368DF
:1056800087B00646002B3CD0816800292ED000242C
:10569000274611E0AB68002B36D001A8FEF76EFC60
:1056A0000599029B28689847B168AF60C5E9007703
:1056B00001348C421AD2336804EB440213EB8205A6
:1056C000F6D053F82230002BE4D16B6843BBAB68B3
:1056D000002BEDD0184B19481B685122DB680121C3
:1056E0000FF08CF84FF0FF30FAF7B4FD01A8FEF789
:1056F00045FC029B0599306898470023C6E90033B2
:10570000B36007B0F0BD70470B4B0D481B684C22CF
:10571000DB6801210FF072F84FF0FF30FAF79AFDC5
:10572000054B08481B684E22DB6801210FF066F824
:105730004FF0FF30FAF78EFD00000020B43E020863
:10574000143E0208643E020850B351B3F8B54568F0
:105750004B689D4222D135B3006800B30C68ECB1B0
:105760006368426800269A4200F10C0706F10106C0
:1057700014D157F80C0C21680FF0B2F80C3704F173
:105780000C0358B9B5420ED00C3408D01C4657F85B
:10579000082C63689A4206F10106EAD00020F8BDA1
:1057A0007047084670470120F8BD00BF00284BD065
:1057B0002DE9F04F8B468BB0002941D045688B68AE
:1057C000AB42804642D3CBF80450002D73D0D8F8BA
:1057D0000030ABB3DBF8004094B30027D3E90056A8
:1057E000BA4625E0FEF7CAFB099A2068079B49469E
:1057F000984729463246054610B3FAF773FD05F877
:1058000006A0D8F80420C4F80890BA42C4E90056AB
:1058100007EB47034FD9D8F80020DBF8004012EB24
:10582000830104EB83040BD054B152F823504E682B
:1058300006F1010905A81DB1731C07F10107D1D1BB
:1058400000200BB0BDE8F08F00207047684605EBE4
:105850004505FEF793FB029B049ADBF80000A900C4
:1058600098470028ECD0D8F80450DBF80840CBF873
:105870000000AC423AD204EB440500EB850501265A
:10588000002705A8FEF77AFB059B09990120984798
:105890002860A0B10770C5E90176D8F80450631CF0
:1058A0009D4223D9DBF8005003EB430215EB820540
:1058B00007D01C46E5E701200BB0BDE8F08F23467A
:1058C000013CDBF808209342BAD904EB4405AD0053
:1058D000DBF800002844FFF7AFFDDBF80820A24208
:1058E000A5F10C0504F1FF34F2D3A9E7CBF8085079
:1058F00069E700BF70B586B0054601A8FEF73EFB1C
:10590000059E019B31460C209847044620B129464C
:10591000FFF76AFE054610B1204606B070BD20466E
:10592000029B314698472C46204606B070BD00BF0A
:10593000F0B5064687B0002835D00368002B32D07A
:10594000816800293AD00024274611E0AB68002B7B
:1059500041D001A8FEF712FB0599029B28689847E1
:10596000B168AF60C5E9007701348C4226D2336854
:1059700004EB440213EB8205F6D053F82230002BDF
:10598000E4D16B68002B2BD1AB68002BECD0174B0C
:1059900017481B685122DB6801210EF02FFF4FF0E2
:1059A000FF30FAF757FC01AC2046FEF7E7FA0599FD
:1059B000029B304607B0BDE8F040184701AC2046D6
:1059C000FEF7DCFA029B0599306898470023C6E988
:1059D0000033B360E8E7054B06481B684C22DAE762
:1059E000024B05481B684E22D5E700BF000000208F
:1059F000B43E0208143E0208643E0208044B1A68D2
:105A00000AB103487047034A014812681A60704798
:105A100078000020C803002040687047006801EB50
:105A2000410100EB81007047036801EB410103EB8A
:105A30008101134607C983E80700704703468C4677
:105A400007CA1B680CEB4C0C03EB8C0383E80700C4
:105A5000704700BF40687047006800EBC1007047A6
:105A6000036803EBC101D1E90001C2E900017047FD
:105A7000036892ED007B03EBC10181ED007B704771
:105A80000BF028B90BF0ECB910B582B004460191C7
:105A9000FFF7F2FD0199204602B0BDE81040FFF784
:105AA000A3BD00BF10B582B0044601910AF0F8F81A
:105AB0000199204602B0BDE810400AF0D9B800BFF5
:105AC0004068704740687047006800EBC10070474D
:105AD000006800EBC1007047006800EBC100704730
:105AE000006801EB410100EB81007047006800EBAA
:105AF000C1007047006800EBC1007047036892ED79
:105B0000007B03EBC10181ED007B7047036803EB71
